:0500000002804C80FBB2
:02000B0080F380
:0200130080EB80
:02001B0080E380
:0200230080DB80
:02002B0080D380
:0E0032003830353164756D7065722076312E70
:1000400030206279204E4636580D0A0075A800759A
:1000500090FF758107758700759850758921758D9A
:10006000FD758BFDD28E90803211B3C29211923009
:100070009318D2921192309311119230930C1192E5
:10008000309307119230930280E1D292C291C290D4
:1000900080FEC28C758C4C758A00C28DD28C308DDE
:1000A000FDC28C758C4C758A00C28DD28C308DFD52
:1000B000C28C22E493600AC299F5993099FDA3801D
:0200C000F2222A
:00000001FF
